S0150000547261666669635F6C696768742E73726563D9
S113000045C0000058C0000056C0000054C00000A5
S113001052C0000050C000004EC000004CC00000A0
S11300204AC0000048C0000046C0000044C00000B0
S113003042C0000040C000003EC000003CC00000C0
S11300403AC0000038C0000036C0000034C00000D0
S113005032C0000030C000002EC000002CC00000E0
S11300602AC0000028C0000026C0000024C00000F0
S113007022C0000020C000001EC000001CC0000000
S11300801AC0000018C0000016C0000011241FBED2
S1130090CFEFD0E1DEBFCDBF11E0A0E0B1E0E0EDF5
S11300A0F1E000E00BBF02C007900D92AA30B10747
S11300B0D9F779D08BC0A4CF81309105A1F01CF47D
S11300C0892B39F0089582309105B9F0039759F0DE
S11300D008952FEF83E294EF215080409040E1F7A0
S11300E000C0000008952FEF83ED90E3215080407D
S11300F09040E1F700C0000008952FEF8BE792E9EC
S1130100215080409040E1F700C000000895EF9234
S1130110FF920F931F93CF93DF9305E011E0C0E0AC
S1130120D0E00F2EF2E6EF2EF12CF02DF801D801DD
S11301308D918D01816082BB80818160F701808314
S1130140CE01BADF2196C530D10581F7DF91CF9179
S11301501F910F91FF90EF900895EF92FF920F93EC
S11301601F93CF93DF9300E011E0C0E0D0E00F2EA7
S1130170F2E6EF2EF12CF02DF801D8018D918D01CE
S1130180806882BB80818068F7018083CE0194DF20
S11301902196C530D10581F7DF91CF911F910F9141
S11301A0FF90EF9008958FEF81BB8093610012BAA6
S11301B010926200D2DF2FEF81EE94E02150804054
S11301C09040E1F700C00000A2DFF4CFF894FFCF25
S10D01D008020503011040A0C080DE
S9030000FC
